{
  "_format": "hh-sol-artifact-1",
  "contractName": "WhiteList",
  "sourceName": "contracts/WhiteList.sol",
  "abi": [
    {
      "inputs": [],
      "stateMutability": "nonpayable",
      "type": "constructor"
    },
    {
      "inputs": [],
      "name": "addSendertoWhitelist",
      "outputs": [],
      "stateMutability": "nonpayable",
      "type": "function"
    },
    {
      "inputs": [],
      "name": "check",
      "outputs": [
        {
          "internalType": "uint256",
          "name": "",
          "type": "uint256"
        }
      ],
      "stateMutability": "pure",
      "type": "function"
    },
    {
      "inputs": [
        {
          "internalType": "uint256",
          "name": "limit",
          "type": "uint256"
        }
      ],
      "name": "setWhiteListLimit",
      "outputs": [],
      "stateMutability": "nonpayable",
      "type": "function"
    }
  ],
  "bytecode": "0x608060405234801561001057600080fd5b5033600160006101000a81548173ffffffffffffffffffffffffffffffffffffffff021916908373ffffffffffffffffffffffffffffffffffffffff160217905550610560806100616000396000f3fe608060405234801561001057600080fd5b50600436106100415760003560e01c8063919840ad14610046578063a3cd954c14610064578063a6159a1914610080575b600080fd5b61004e61008a565b60405161005b9190610287565b60405180910390f35b61007e600480360381019061007991906102d3565b610093565b005b61008861012f565b005b60006002905090565b33600160009054906101000a900473ffffffffffffffffffffffffffffffffffffffff1673ffffffffffffffffffffffffffffffffffffffff168173ffffffffffffffffffffffffffffffffffffffff1614610124576040517f08c379a000000000000000000000000000000000000000000000000000000000815260040161011b90610383565b60405180910390fd5b816002819055505050565b60025460035410610175576040517f08c379a000000000000000000000000000000000000000000000000000000000815260040161016c90610415565b60405180910390fd5b6000803373ffffffffffffffffffffffffffffffffffffffff1673ffffffffffffffffffffffffffffffffffffffff16815260200190815260200160002060009054906101000a900460ff16610200576040517f08c379a00000000000000000000000000000000000000000000000000000000081526004016101f7906104a7565b60405180910390fd5b60016000803373ffffffffffffffffffffffffffffffffffffffff1673ffffffffffffffffffffffffffffffffffffffff16815260200190815260200160002060006101000a81548160ff021916908315150217905550600160035461026691906104f6565b600381905550565b6000819050919050565b6102818161026e565b82525050565b600060208201905061029c6000830184610278565b92915050565b600080fd5b6102b08161026e565b81146102bb57600080fd5b50565b6000813590506102cd816102a7565b92915050565b6000602082840312156102e9576102e86102a2565b5b60006102f7848285016102be565b91505092915050565b600082825260208201905092915050565b7f4f6e6c79204f776e65722043616e2043616c6c20546869732046756e6374696f60008201527f6e00000000000000000000000000000000000000000000000000000000000000602082015250565b600061036d602183610300565b915061037882610311565b604082019050919050565b6000602082019050818103600083015261039c81610360565b9050919050565b7f4c6973742049732046756c6c2c20426574746572204c75636b204e657874205460008201527f696d650000000000000000000000000000000000000000000000000000000000602082015250565b60006103ff602383610300565b915061040a826103a3565b604082019050919050565b6000602082019050818103600083015261042e816103f2565b9050919050565b7f4d656d62657220576974682054686973204164647265737320497320416c726560008201527f6164792052656769737465726564000000000000000000000000000000000000602082015250565b6000610491602e83610300565b915061049c82610435565b604082019050919050565b600060208201905081810360008301526104c081610484565b9050919050565b7f4e487b7100000000000000000000000000000000000000000000000000000000600052601160045260246000fd5b60006105018261026e565b915061050c8361026e565b9250828201905080821115610524576105236104c7565b5b9291505056fea26469706673582212203fe1bd375db8c4289591ee39cc74c882fe60da0bf97296ec316a15f7a49a568964736f6c63430008110033",
  "linkReferences": {},
  "deployedLinkReferences": {}
}