{"contracts/WhiteList.sol":{"WhiteList":{"abi":[{"inputs":[],"stateMutability":"nonpayable","type":"constructor"},{"inputs":[],"name":"addSendertoWhitelist","outputs":[],"stateMutability":"nonpayable","type":"function"},{"inputs":[{"internalType":"uint256","name":"limit","type":"uint256"}],"name":"setWhiteListLimit","outputs":[],"stateMutability":"nonpayable","type":"function"},{"inputs":[],"name":"whiteListCount","outputs":[{"internalType":"uint256","name":"","type":"uint256"}],"stateMutability":"view","type":"function"},{"inputs":[{"internalType":"address","name":"","type":"address"}],"name":"whiteListedMembers","outputs":[{"internalType":"bool","name":"","type":"bool"}],"stateMutability":"view","type":"function"}],"evm":{"bytecode":{"linkReferences":{},"object":"608060405234801561001057600080fd5b5033600160006101000a81548173ffffffffffffffffffffffffffffffffffffffff021916908373ffffffffffffffffffffffffffffffffffffffff16021790555061067a806100616000396000f3fe608060405234801561001057600080fd5b506004361061004c5760003560e01c8063399dccb614610051578063534854ca1461006f578063a3cd954c1461009f578063a6159a19146100bb575b600080fd5b6100596100c5565b60405161006691906102e0565b60405180910390f35b6100896004803603810190610084919061035e565b6100cb565b60405161009691906103a6565b60405180910390f35b6100b960048036038101906100b491906103ed565b6100eb565b005b6100c3610187565b005b60035481565b60006020528060005260406000206000915054906101000a900460ff1681565b33600160009054906101000a900473ffffffffffffffffffffffffffffffffffffffff1673ffffffffffffffffffffffffffffffffffffffff168173ffffffffffffffffffffffffffffffffffffffff161461017c576040517f08c379a00000000000000000000000000000000000000000000000000000000081526004016101739061049d565b60405180910390fd5b816002819055505050565b600254600354106101cd576040517f08c379a00000000000000000000000000000000000000000000000000000000081526004016101c49061052f565b60405180910390fd5b6000803373ffffffffffffffffffffffffffffffffffffffff1673ffffffffffffffffffffffffffffffffffffffff16815260200190815260200160002060009054906101000a900460ff1615610259576040517f08c379a0000000000000000000000000000000000000000000000000000000008152600401610250906105c1565b60405180910390fd5b60016000803373ffffffffffffffffffffffffffffffffffffffff1673ffffffffffffffffffffffffffffffffffffffff16815260200190815260200160002060006101000a81548160ff02191690831515021790555060016003546102bf9190610610565b600381905550565b6000819050919050565b6102da816102c7565b82525050565b60006020820190506102f560008301846102d1565b92915050565b600080fd5b600073ffffffffffffffffffffffffffffffffffffffff82169050919050565b600061032b82610300565b9050919050565b61033b81610320565b811461034657600080fd5b50565b60008135905061035881610332565b92915050565b600060208284031215610374576103736102fb565b5b600061038284828501610349565b91505092915050565b60008115159050919050565b6103a08161038b565b82525050565b60006020820190506103bb6000830184610397565b92915050565b6103ca816102c7565b81146103d557600080fd5b50565b6000813590506103e7816103c1565b92915050565b600060208284031215610403576104026102fb565b5b6000610411848285016103d8565b91505092915050565b600082825260208201905092915050565b7f4f6e6c79204f776e65722043616e2043616c6c20546869732046756e6374696f60008201527f6e00000000000000000000000000000000000000000000000000000000000000602082015250565b600061048760218361041a565b91506104928261042b565b604082019050919050565b600060208201905081810360008301526104b68161047a565b9050919050565b7f4c6973742049732046756c6c2c20426574746572204c75636b204e657874205460008201527f696d650000000000000000000000000000000000000000000000000000000000602082015250565b600061051960238361041a565b9150610524826104bd565b604082019050919050565b600060208201905081810360008301526105488161050c565b9050919050565b7f4d656d62657220576974682054686973204164647265737320497320416c726560008201527f6164792052656769737465726564000000000000000000000000000000000000602082015250565b60006105ab602e8361041a565b91506105b68261054f565b604082019050919050565b600060208201905081810360008301526105da8161059e565b9050919050565b7f4e487b7100000000000000000000000000000000000000000000000000000000600052601160045260246000fd5b600061061b826102c7565b9150610626836102c7565b925082820190508082111561063e5761063d6105e1565b5b9291505056fea2646970667358221220cbe218c2a78d16ff421a8bba2dcf139ebb54b637e83f86539c91acf525cbc3da64736f6c63430008110033","opcodes":"PUSH1 0x80 PUSH1 0x40 MSTORE CALLVALUE DUP1 ISZERO PUSH2 0x10 JUMPI PUSH1 0x0 DUP1 REVERT JUMPDEST POP CALLER PUSH1 0x1 PUSH1 0x0 PUSH2 0x100 EXP DUP2 SLOAD DUP2 PUSH20 0xFFFFFFFFFFFFFFFFFFFFFFFFFFFFFFFFFFFFFFFF MUL NOT AND SWAP1 DUP4 PUSH20 0xFFFFFFFFFFFFFFFFFFFFFFFFFFFFFFFFFFFFFFFF AND MUL OR SWAP1 SSTORE POP PUSH2 0x67A DUP1 PUSH2 0x61 PUSH1 0x0 CODECOPY PUSH1 0x0 RETURN INVALID PUSH1 0x80 PUSH1 0x40 MSTORE CALLVALUE DUP1 ISZERO PUSH2 0x10 JUMPI PUSH1 0x0 DUP1 REVERT JUMPDEST POP PUSH1 0x4 CALLDATASIZE LT PUSH2 0x4C JUMPI PUSH1 0x0 CALLDATALOAD PUSH1 0xE0 SHR DUP1 PUSH4 0x399DCCB6 EQ PUSH2 0x51 JUMPI DUP1 PUSH4 0x534854CA EQ PUSH2 0x6F JUMPI DUP1 PUSH4 0xA3CD954C EQ PUSH2 0x9F JUMPI DUP1 PUSH4 0xA6159A19 EQ PUSH2 0xBB JUMPI JUMPDEST PUSH1 0x0 DUP1 REVERT JUMPDEST PUSH2 0x59 PUSH2 0xC5 JUMP JUMPDEST PUSH1 0x40 MLOAD PUSH2 0x66 SWAP2 SWAP1 PUSH2 0x2E0 JUMP JUMPDEST PUSH1 0x40 MLOAD DUP1 SWAP2 SUB SWAP1 RETURN JUMPDEST PUSH2 0x89 PUSH1 0x4 DUP1 CALLDATASIZE SUB DUP2 ADD SWAP1 PUSH2 0x84 SWAP2 SWAP1 PUSH2 0x35E JUMP JUMPDEST PUSH2 0xCB JUMP JUMPDEST PUSH1 0x40 MLOAD PUSH2 0x96 SWAP2 SWAP1 PUSH2 0x3A6 JUMP JUMPDEST PUSH1 0x40 MLOAD DUP1 SWAP2 SUB SWAP1 RETURN JUMPDEST PUSH2 0xB9 PUSH1 0x4 DUP1 CALLDATASIZE SUB DUP2 ADD SWAP1 PUSH2 0xB4 SWAP2 SWAP1 PUSH2 0x3ED JUMP JUMPDEST PUSH2 0xEB JUMP JUMPDEST STOP JUMPDEST PUSH2 0xC3 PUSH2 0x187 JUMP JUMPDEST STOP JUMPDEST PUSH1 0x3 SLOAD DUP2 JUMP JUMPDEST PUSH1 0x0 PUSH1 0x20 MSTORE DUP1 PUSH1 0x0 MSTORE PUSH1 0x40 PUSH1 0x0 KECCAK256 PUSH1 0x0 SWAP2 POP SLOAD SWAP1 PUSH2 0x100 EXP SWAP1 DIV PUSH1 0xFF AND DUP2 JUMP JUMPDEST CALLER PUSH1 0x1 PUSH1 0x0 SWAP1 SLOAD SWAP1 PUSH2 0x100 EXP SWAP1 DIV PUSH20 0xFFFFFFFFFFFFFFFFFFFFFFFFFFFFFFFFFFFFFFFF AND PUSH20 0xFFFFFFFFFFFFFFFFFFFFFFFFFFFFFFFFFFFFFFFF AND DUP2 PUSH20 0xFFFFFFFFFFFFFFFFFFFFFFFFFFFFFFFFFFFFFFFF AND EQ PUSH2 0x17C JUMPI PUSH1 0x40 MLOAD PUSH32 0x8C379A000000000000000000000000000000000000000000000000000000000 DUP2 MSTORE PUSH1 0x4 ADD PUSH2 0x173 SWAP1 PUSH2 0x49D JUMP JUMPDEST PUSH1 0x40 MLOAD DUP1 SWAP2 SUB SWAP1 REVERT JUMPDEST DUP2 PUSH1 0x2 DUP2 SWAP1 SSTORE POP POP POP JUMP JUMPDEST PUSH1 0x2 SLOAD PUSH1 0x3 SLOAD LT PUSH2 0x1CD JUMPI PUSH1 0x40 MLOAD PUSH32 0x8C379A000000000000000000000000000000000000000000000000000000000 DUP2 MSTORE PUSH1 0x4 ADD PUSH2 0x1C4 SWAP1 PUSH2 0x52F JUMP JUMPDEST PUSH1 0x40 MLOAD DUP1 SWAP2 SUB SWAP1 REVERT JUMPDEST PUSH1 0x0 DUP1 CALLER PUSH20 0xFFFFFFFFFFFFFFFFFFFFFFFFFFFFFFFFFFFFFFFF AND PUSH20 0xFFFFFFFFFFFFFFFFFFFFFFFFFFFFFFFFFFFFFFFF AND DUP2 MSTORE PUSH1 0x20 ADD SWAP1 DUP2 MSTORE PUSH1 0x20 ADD PUSH1 0x0 KECCAK256 PUSH1 0x0 SWAP1 SLOAD SWAP1 PUSH2 0x100 EXP SWAP1 DIV PUSH1 0xFF AND ISZERO PUSH2 0x259 JUMPI PUSH1 0x40 MLOAD PUSH32 0x8C379A000000000000000000000000000000000000000000000000000000000 DUP2 MSTORE PUSH1 0x4 ADD PUSH2 0x250 SWAP1 PUSH2 0x5C1 JUMP JUMPDEST PUSH1 0x40 MLOAD DUP1 SWAP2 SUB SWAP1 REVERT JUMPDEST PUSH1 0x1 PUSH1 0x0 DUP1 CALLER PUSH20 0xFFFFFFFFFFFFFFFFFFFFFFFFFFFFFFFFFFFFFFFF AND PUSH20 0xFFFFFFFFFFFFFFFFFFFFFFFFFFFFFFFFFFFFFFFF AND DUP2 MSTORE PUSH1 0x20 ADD SWAP1 DUP2 MSTORE PUSH1 0x20 ADD PUSH1 0x0 KECCAK256 PUSH1 0x0 PUSH2 0x100 EXP DUP2 SLOAD DUP2 PUSH1 0xFF MUL NOT AND SWAP1 DUP4 ISZERO ISZERO MUL OR SWAP1 SSTORE POP PUSH1 0x1 PUSH1 0x3 SLOAD PUSH2 0x2BF SWAP2 SWAP1 PUSH2 0x610 JUMP JUMPDEST PUSH1 0x3 DUP2 SWAP1 SSTORE POP JUMP JUMPDEST PUSH1 0x0 DUP2 SWAP1 POP SWAP2 SWAP1 POP JUMP JUMPDEST PUSH2 0x2DA DUP2 PUSH2 0x2C7 JUMP JUMPDEST DUP3 MSTORE POP POP JUMP JUMPDEST PUSH1 0x0 PUSH1 0x20 DUP3 ADD SWAP1 POP PUSH2 0x2F5 PUSH1 0x0 DUP4 ADD DUP5 PUSH2 0x2D1 JUMP JUMPDEST SWAP3 SWAP2 POP POP JUMP JUMPDEST PUSH1 0x0 DUP1 REVERT JUMPDEST PUSH1 0x0 PUSH20 0xFFFFFFFFFFFFFFFFFFFFFFFFFFFFFFFFFFFFFFFF DUP3 AND SWAP1 POP SWAP2 SWAP1 POP JUMP JUMPDEST PUSH1 0x0 PUSH2 0x32B DUP3 PUSH2 0x300 JUMP JUMPDEST SWAP1 POP SWAP2 SWAP1 POP JUMP JUMPDEST PUSH2 0x33B DUP2 PUSH2 0x320 JUMP JUMPDEST DUP2 EQ PUSH2 0x346 JUMPI PUSH1 0x0 DUP1 REVERT JUMPDEST POP JUMP JUMPDEST PUSH1 0x0 DUP2 CALLDATALOAD SWAP1 POP PUSH2 0x358 DUP2 PUSH2 0x332 JUMP JUMPDEST SWAP3 SWAP2 POP POP JUMP JUMPDEST PUSH1 0x0 PUSH1 0x20 DUP3 DUP5 SUB SLT ISZERO PUSH2 0x374 JUMPI PUSH2 0x373 PUSH2 0x2FB JUMP JUMPDEST JUMPDEST PUSH1 0x0 PUSH2 0x382 DUP5 DUP3 DUP6 ADD PUSH2 0x349 JUMP JUMPDEST SWAP2 POP POP SWAP3 SWAP2 POP POP JUMP JUMPDEST PUSH1 0x0 DUP2 ISZERO ISZERO SWAP1 POP SWAP2 SWAP1 POP JUMP JUMPDEST PUSH2 0x3A0 DUP2 PUSH2 0x38B JUMP JUMPDEST DUP3 MSTORE POP POP JUMP JUMPDEST PUSH1 0x0 PUSH1 0x20 DUP3 ADD SWAP1 POP PUSH2 0x3BB PUSH1 0x0 DUP4 ADD DUP5 PUSH2 0x397 JUMP JUMPDEST SWAP3 SWAP2 POP POP JUMP JUMPDEST PUSH2 0x3CA DUP2 PUSH2 0x2C7 JUMP JUMPDEST DUP2 EQ PUSH2 0x3D5 JUMPI PUSH1 0x0 DUP1 REVERT JUMPDEST POP JUMP JUMPDEST PUSH1 0x0 DUP2 CALLDATALOAD SWAP1 POP PUSH2 0x3E7 DUP2 PUSH2 0x3C1 JUMP JUMPDEST SWAP3 SWAP2 POP POP JUMP JUMPDEST PUSH1 0x0 PUSH1 0x20 DUP3 DUP5 SUB SLT ISZERO PUSH2 0x403 JUMPI PUSH2 0x402 PUSH2 0x2FB JUMP JUMPDEST JUMPDEST PUSH1 0x0 PUSH2 0x411 DUP5 DUP3 DUP6 ADD PUSH2 0x3D8 JUMP JUMPDEST SWAP2 POP POP SWAP3 SWAP2 POP POP JUMP JUMPDEST PUSH1 0x0 DUP3 DUP3 MSTORE PUSH1 0x20 DUP3 ADD SWAP1 POP SWAP3 SWAP2 POP POP JUMP JUMPDEST PUSH32 0x4F6E6C79204F776E65722043616E2043616C6C20546869732046756E6374696F PUSH1 0x0 DUP3 ADD MSTORE PUSH32 0x6E00000000000000000000000000000000000000000000000000000000000000 PUSH1 0x20 DUP3 ADD MSTORE POP JUMP JUMPDEST PUSH1 0x0 PUSH2 0x487 PUSH1 0x21 DUP4 PUSH2 0x41A JUMP JUMPDEST SWAP2 POP PUSH2 0x492 DUP3 PUSH2 0x42B JUMP JUMPDEST PUSH1 0x40 DUP3 ADD SWAP1 POP SWAP2 SWAP1 POP JUMP JUMPDEST PUSH1 0x0 PUSH1 0x20 DUP3 ADD SWAP1 POP DUP2 DUP2 SUB PUSH1 0x0 DUP4 ADD MSTORE PUSH2 0x4B6 DUP2 PUSH2 0x47A JUMP JUMPDEST SWAP1 POP SWAP2 SWAP1 POP JUMP JUMPDEST PUSH32 0x4C6973742049732046756C6C2C20426574746572204C75636B204E6578742054 PUSH1 0x0 DUP3 ADD MSTORE PUSH32 0x696D650000000000000000000000000000000000000000000000000000000000 PUSH1 0x20 DUP3 ADD MSTORE POP JUMP JUMPDEST PUSH1 0x0 PUSH2 0x519 PUSH1 0x23 DUP4 PUSH2 0x41A JUMP JUMPDEST SWAP2 POP PUSH2 0x524 DUP3 PUSH2 0x4BD JUMP JUMPDEST PUSH1 0x40 DUP3 ADD SWAP1 POP SWAP2 SWAP1 POP JUMP JUMPDEST PUSH1 0x0 PUSH1 0x20 DUP3 ADD SWAP1 POP DUP2 DUP2 SUB PUSH1 0x0 DUP4 ADD MSTORE PUSH2 0x548 DUP2 PUSH2 0x50C JUMP JUMPDEST SWAP1 POP SWAP2 SWAP1 POP JUMP JUMPDEST PUSH32 0x4D656D62657220576974682054686973204164647265737320497320416C7265 PUSH1 0x0 DUP3 ADD MSTORE PUSH32 0x6164792052656769737465726564000000000000000000000000000000000000 PUSH1 0x20 DUP3 ADD MSTORE POP JUMP JUMPDEST PUSH1 0x0 PUSH2 0x5AB PUSH1 0x2E DUP4 PUSH2 0x41A JUMP JUMPDEST SWAP2 POP PUSH2 0x5B6 DUP3 PUSH2 0x54F JUMP JUMPDEST PUSH1 0x40 DUP3 ADD SWAP1 POP SWAP2 SWAP1 POP JUMP JUMPDEST PUSH1 0x0 PUSH1 0x20 DUP3 ADD SWAP1 POP DUP2 DUP2 SUB PUSH1 0x0 DUP4 ADD MSTORE PUSH2 0x5DA DUP2 PUSH2 0x59E JUMP JUMPDEST SWAP1 POP SWAP2 SWAP1 POP JUMP JUMPDEST PUSH32 0x4E487B7100000000000000000000000000000000000000000000000000000000 PUSH1 0x0 MSTORE PUSH1 0x11 PUSH1 0x4 MSTORE PUSH1 0x24 PUSH1 0x0 REVERT JUMPDEST PUSH1 0x0 PUSH2 0x61B DUP3 PUSH2 0x2C7 JUMP JUMPDEST SWAP2 POP PUSH2 0x626 DUP4 PUSH2 0x2C7 JUMP JUMPDEST SWAP3 POP DUP3 DUP3 ADD SWAP1 POP DUP1 DUP3 GT ISZERO PUSH2 0x63E JUMPI PUSH2 0x63D PUSH2 0x5E1 JUMP JUMPDEST JUMPDEST SWAP3 SWAP2 POP POP JUMP INVALID LOG2 PUSH5 0x6970667358 0x22 SLT KECCAK256 0xCB 0xE2 XOR 0xC2 0xA7 DUP14 AND SELFDESTRUCT TIMESTAMP BYTE DUP12 0xBA 0x2D 0xCF SGT SWAP15 0xBB SLOAD 0xB6 CALLDATACOPY 0xE8 EXTCODEHASH DUP7 MSTORE8 SWAP13 SWAP2 0xAC CREATE2 0x25 0xCB 0xC3 0xDA PUSH5 0x736F6C6343 STOP ADDMOD GT STOP CALLER "},"methodIdentifiers":{"addSendertoWhitelist()":"a6159a19","setWhiteListLimit(uint256)":"a3cd954c","whiteListCount()":"399dccb6","whiteListedMembers(address)":"534854ca"}}}}}