{
    "_format": "hh-sol-artifact-1",
    "contractName": "WhiteList",
    "sourceName": "contracts/WhiteList.sol",
    "abi": [
        {
            "inputs": [],
            "stateMutability": "nonpayable",
            "type": "constructor"
        },
        {
            "inputs": [],
            "name": "addSendertoWhitelist",
            "outputs": [],
            "stateMutability": "nonpayable",
            "type": "function"
        },
        {
            "inputs": [
                {
                    "internalType": "uint256",
                    "name": "limit",
                    "type": "uint256"
                }
            ],
            "name": "setWhiteListLimit",
            "outputs": [],
            "stateMutability": "nonpayable",
            "type": "function"
        },
        {
            "inputs": [],
            "name": "whiteListCount",
            "outputs": [
                {
                    "internalType": "uint256",
                    "name": "",
                    "type": "uint256"
                }
            ],
            "stateMutability": "view",
            "type": "function"
        },
        {
            "inputs": [
                {
                    "internalType": "address",
                    "name": "",
                    "type": "address"
                }
            ],
            "name": "whiteListedMembers",
            "outputs": [
                {
                    "internalType": "bool",
                    "name": "",
                    "type": "bool"
                }
            ],
            "stateMutability": "view",
            "type": "function"
        }
    ],
    "bytecode": "0x608060405234801561001057600080fd5b5033600160006101000a81548173ffffffffffffffffffffffffffffffffffffffff021916908373ffffffffffffffffffffffffffffffffffffffff16021790555061067a806100616000396000f3fe608060405234801561001057600080fd5b506004361061004c5760003560e01c8063399dccb614610051578063534854ca1461006f578063a3cd954c1461009f578063a6159a19146100bb575b600080fd5b6100596100c5565b60405161006691906102e0565b60405180910390f35b6100896004803603810190610084919061035e565b6100cb565b60405161009691906103a6565b60405180910390f35b6100b960048036038101906100b491906103ed565b6100eb565b005b6100c3610187565b005b60035481565b60006020528060005260406000206000915054906101000a900460ff1681565b33600160009054906101000a900473ffffffffffffffffffffffffffffffffffffffff1673ffffffffffffffffffffffffffffffffffffffff168173ffffffffffffffffffffffffffffffffffffffff161461017c576040517f08c379a00000000000000000000000000000000000000000000000000000000081526004016101739061049d565b60405180910390fd5b816002819055505050565b600254600354106101cd576040517f08c379a00000000000000000000000000000000000000000000000000000000081526004016101c49061052f565b60405180910390fd5b6000803373ffffffffffffffffffffffffffffffffffffffff1673ffffffffffffffffffffffffffffffffffffffff16815260200190815260200160002060009054906101000a900460ff1615610259576040517f08c379a0000000000000000000000000000000000000000000000000000000008152600401610250906105c1565b60405180910390fd5b60016000803373ffffffffffffffffffffffffffffffffffffffff1673ffffffffffffffffffffffffffffffffffffffff16815260200190815260200160002060006101000a81548160ff02191690831515021790555060016003546102bf9190610610565b600381905550565b6000819050919050565b6102da816102c7565b82525050565b60006020820190506102f560008301846102d1565b92915050565b600080fd5b600073ffffffffffffffffffffffffffffffffffffffff82169050919050565b600061032b82610300565b9050919050565b61033b81610320565b811461034657600080fd5b50565b60008135905061035881610332565b92915050565b600060208284031215610374576103736102fb565b5b600061038284828501610349565b91505092915050565b60008115159050919050565b6103a08161038b565b82525050565b60006020820190506103bb6000830184610397565b92915050565b6103ca816102c7565b81146103d557600080fd5b50565b6000813590506103e7816103c1565b92915050565b600060208284031215610403576104026102fb565b5b6000610411848285016103d8565b91505092915050565b600082825260208201905092915050565b7f4f6e6c79204f776e65722043616e2043616c6c20546869732046756e6374696f60008201527f6e00000000000000000000000000000000000000000000000000000000000000602082015250565b600061048760218361041a565b91506104928261042b565b604082019050919050565b600060208201905081810360008301526104b68161047a565b9050919050565b7f4c6973742049732046756c6c2c20426574746572204c75636b204e657874205460008201527f696d650000000000000000000000000000000000000000000000000000000000602082015250565b600061051960238361041a565b9150610524826104bd565b604082019050919050565b600060208201905081810360008301526105488161050c565b9050919050565b7f4d656d62657220576974682054686973204164647265737320497320416c726560008201527f6164792052656769737465726564000000000000000000000000000000000000602082015250565b60006105ab602e8361041a565b91506105b68261054f565b604082019050919050565b600060208201905081810360008301526105da8161059e565b9050919050565b7f4e487b7100000000000000000000000000000000000000000000000000000000600052601160045260246000fd5b600061061b826102c7565b9150610626836102c7565b925082820190508082111561063e5761063d6105e1565b5b9291505056fea2646970667358221220cbe218c2a78d16ff421a8bba2dcf139ebb54b637e83f86539c91acf525cbc3da64736f6c63430008110033",
    "linkReferences": {},
    "deployedLinkReferences": {}
}